:020000040800F2
:1000000000000420D9450008DF0C0008E10C0008BE
:10001000E30C0008E50C0008E70C000800000000F5
:10002000000000000000000000000000E90C0008D3
:10003000EB0C000800000000ED0C0008EF0C0008BD
:1000400029460008294600082946000829460008D4
:1000500029460008294600082946000829460008C4
:1000600029460008294600082946000829460008B4
:1000700029460008294600082946000829460008A4
:100080002946000829460008294600082946000894
:100090002946000829460008294600082946000884
:1000A0002946000829460008294600082946000874
:1000B00029460008F90C00082946000829460008CE
:1000C0002946000829460008294600082946000854
:1000D000294600080D0D0008294600082946000899
:1000E0002946000829460008294600082946000834
:1000F0002946000829460008294600082946000824
:10010000000000002946000829460008294600088A
:1001100000000000000000002946000829460008F1
:10012000490D000829460008590D00082946000815
:1001300029460008294600082946000829460008E3
:1001400029460008294600082946000829460008D3
:100150002946000829460008750D000829460008B0
:10016000850D0008950D000800000000000000004B
:10017000000000000000000000000000000000007F
:100180002946000829460008000000000000000081
:100190002946000829460008000000000000000071
:1001A000000000000000000000000000000000004F
:1001B0002946000800000000000000002946000851
:0401C00029460008C4
:1001C4000348044B834202D0034B03B118477047E2
:1001D4000C0000200C000020000000000548064927
:1001E400091A891001EBD171491002D0034B03B1F4
:1001F400184770470C0000200C000020000000008D
:1002040010B5064C237843B9FFF7DAFF044B13B15A
:100214000448AFF300800123237010BD0C000020BC
:10022400000000002C46000808B5044B1BB104492B
:100234000448AFF30080BDE80840CFE700000000A9
:10024400100000202C46000870B50D4E0D4D761B95
:10025400B61006D00024013455F8043B9847A64252
:10026400F9D1094E094D761B04F0DEF9B61006D01B
:100274000024013455F8043B9847A642F9D170BDD7
:100284000C4D00080C4D0008104D00080C4D0008E2
:10029400844641EA000313F003036DD1403A41D38D
:1002A40051F8043B40F8043B51F8043B40F8043B4C
:1002B40051F8043B40F8043B51F8043B40F8043B3C
:1002C40051F8043B40F8043B51F8043B40F8043B2C
:1002D40051F8043B40F8043B51F8043B40F8043B1C
:1002E40051F8043B40F8043B51F8043B40F8043B0C
:1002F40051F8043B40F8043B51F8043B40F8043BFC
:1003040051F8043B40F8043B51F8043B40F8043BEB
:1003140051F8043B40F8043B51F8043B40F8043BDB
:10032400403ABDD2303211D351F8043B40F8043B7B
:1003340051F8043B40F8043B51F8043B40F8043BBB
:1003440051F8043B40F8043B103AEDD20C3205D38B
:1003540051F8043B40F8043B043AF9D2043208D083
:10036400D2071CBF11F8013B00F8013B01D30B88F5
:1003740003806046704700BF082A13D38B078DD0D3
:1003840010F003038AD0C3F10403D21ADB071CBFA5
:1003940011F8013B00F8013B80D331F8023B20F80F
:1003A400023B7BE7043AD9D3013A11F8013B00F848
:1003B400013BF9D20B7803704B7843708B788370D0
:1003C40060467047F0B4860743D0541E002A3ED0DE
:1003D400CAB2034602E014F1FF3438D303F8012B08
:1003E4009D07F8D1032C2BD9CDB245EA05250F2C56
:1003F40045EA054516D9A4F110073F0903F1200683
:1004040006EB071603F1100242E9045542E90255CE
:100414001032B242F8D104F00F040137032C03EB7D
:1004240007130DD91E462246043A032A46F8045BF4
:10043400FAD8221F22F003020432134404F0030406
:100444002CB1C9B21C4403F8011B9C42FBD1F0BC83
:10045400704714460346C5E753B94AB9002908BF93
:1004640000281CBF4FF0FF314FF0FF3000F072B98D
:10047400ADF1080C6DE904CE00F006F8DDF804E0F7
:10048400DDE9022304B070472DE9F047089E0446D5
:100494008846002B4BD18A42154667D9B2FA82F2BC
:1004A4004AB1C2F1200701FA02F320FA07F7954096
:1004B40047EA030894404FEA154E230CB8FBFEF7B5
:1004C4001FFA85FC0EFB178843EA084307FB0CF16F
:1004D400994209D9EB1807F1FF3080F01B8199424A
:1004E40040F21881023F2B445B1AA4B2B3FBFEF026
:1004F4000EFB103344EA034400FB0CFCA44509D969
:100504002C1900F1FF3380F00781A44540F20481E7
:1005140002382C4440EA0740A4EB0C0400271EB127
:10052400D4400023C6E900433946BDE8F0878B4236
:1005340009D9002E00F0EB800027C6E900013846F7
:100544003946BDE8F087B3FA83F7002F47D18B42D1
:1005540002D3824200F2FA80841A61EB0303012081
:100564009846002EE0D0C6E90048DDE702B9FFDE78
:10057400B2FA82F2002A40F08F80491B4FEA154EEE
:100584001FFA85F80127B1FBFEFC230C0EFB1C119E
:1005940043EA014308FB0CF1994207D9EB180CF12B
:1005A400FF3002D2994200F2CD808446591AA3B298
:1005B400B1FBFEF00EFB101443EA044408FB00F800
:1005C400A04507D92C1900F1FF3302D2A04500F24F
:1005D400B6801846A4EB080440EA0C409FE7C7F134
:1005E400200CBB4022FA0CFE4EEA030E01FA07F47B
:1005F40020FA0CF521FA0CF34FEA1E482543B3FB0D
:10060400F8F92C0C08FB19331FFA8EFA44EA034359
:1006140009FB0AF49C4202FA07F200FA07F10BD92B
:100624001EEB030309F1FF3080F087809C4240F207
:100634008480A9F1020973441B1BADB2B3FBF8F02B
:1006440008FB103345EA034400FB0AFAA24508D923
:100654001EEB040400F1FF336BD2A24569D90238C2
:10066400744440EA0940A0FB0289A4EB0A044C4507
:10067400C2464B4654D351D0002E69D0B1EB0A0583
:1006840064EB030404FA0CFCFD40FC404CEA050551
:10069400C6E90054002747E7C2F1200320FA03F714
:1006A400954001FA02F021FA03F34FEA154E38435C
:1006B400010CB3FBFEF71FFA85F80EFB173341EA72
:1006C400034107FB08F38B4204FA02F407D96918C3
:1006D40007F1FF3C2FD28B422DD9023F2944CB1A7C
:1006E40081B2B3FBFEF00EFB103341EA034100FB81
:1006F40008F38B4207D9691800F1FF3C17D28B42EB
:1007040015D902382944C91A40EA07473BE7374656
:10071400304609E70746E7E61846FBE64145ABD213
:10072400B8EB020A69EB0E0201381346A4E76046EF
:10073400E9E7184695E76746D1E781467CE7023842
:100744002C4447E7ACF1020C2B442FE7384608E76A
:100754003746E9E6704700BF2DE9F0418AB000242E
:10076400059406940794089409940194374B1A6BE2
:1007740042F080021A631A6B02F080020192019A1D
:1007840002941A6B42F004021A631A6B02F0040218
:100794000292029A03941A6B42F001021A631A6BD2
:1007A40002F001020392039A04941A6B42F00202CB
:1007B4001A631B6B03F002030493049BDFF8988015
:1007C40001228221404601F02BFA214D22464FF4AA
:1007D4003441284601F024FA1E4E22464FF40061AB
:1007E400304601F01DFA82230593012706970794EA
:1007F400089405A9404601F047F94FF434430593A2
:1008040006970794089405A9284601F03DF94FF48A
:100814000063059306970794089405A9304601F0F0
:1008240033F94FF4805305930694079405A9304691
:1008340001F02AF9E02305930694079405A92846B4
:1008440001F022F90AB0BDE8F08100BF003802408F
:1008540000040240000002400008024010B582B0CB
:1008640000240194114B1A6B42F480021A631B6B2F
:1008740003F480030193019B22462146382001F0B2
:1008840003FC382001F034FC224621463A2001F0D2
:10089400FBFB3A2001F02CFC22462146462001F0C5
:1008A400F3FB462001F024FC02B010BD00380240E6
:1008B400F0B585B000250095019502950395134C7C
:1008C400134B23604FF440336360A5600126266117
:1008D400267684F82050E5620E4BA362E560022779
:1008E400E76184F830606561204600F0CFFC009534
:1008F400019602956946204600F0F4FC00960197A3
:100904006946204600F0EEFC05B0F0BD84010020ED
:10091400002001400100000F00B589B000220792B9
:1009240014484FF02043036003F5827343600623A9
:100934008360C260026142618261C26142624FF4BB
:1009440080538362C262026342638263C26302644D
:1009540042640A23019304210291142103910F217B
:10096400049105931123069301A901F0C5FC09B074
:100974005DF804FB9400002008B50948094B0360A6
:10098400094B436000238360C3604FF480420261DB
:1009940043618361C361036201F0B4FE08BD00BF1B
:1009A40030000020005C0040A086010008B5084823
:1009B400084B036047F61223436000238360C3603F
:1009C40003610C2242618361C36103F0B5F808BD81
:1009D4002C0200200010014030B58BB00024089494
:1009E400099401940294039404940594069407943E
:1009F4000F4D104B2B6040F6B8336B60AC604FF674
:100A0400FF73EB602C61AC61284602F075FE08941C
:100A1400099408A9284602F0F1FE01940294039473
:100A24000594224601A9284602F0B8FE0BB030BD59
:100A3400E40000200004004030B583B01C49C0230A
:100A44000B701C4C23784B7002221B4803F0A3F854
:100A540022781A4B83FB020189100D4601EB8101B8
:100A64004800111A83FB05039B1003EB8303580012
:100A74002B1A134880FB0202501100228DF8042027
:100A84008DF803208DF800008DF801308DF80210E8
:100A940013466946032003F087FD23787E2B04D98F
:100AA400044B00221A7003B030BD01332370FAE7FF
:100AB40058030020290000202C0200206766666687
:100AC4001F85EB5130B595B03422002107A8FFF7FC
:100AD40079FC0024029403940494059406940094ED
:100AE4001C4B1A6C42F080521A641B6C03F0805346
:100AF4000093009B0194184B1A6842F440421A6018
:100B04001B6803F440430193019B092307934FF4AB
:100B14008033089301230C9302250D954FF4800331
:100B24000E9304230F93C8221092119312951395D8
:100B340007A800F0E1FD0F230293039504944FF4FA
:100B4400805305930694032102A800F0FFFC15B01E
:100B540030BD00BF0038024000700040F8B501F01D
:100B640011FBFFF7AFFFFFF7F7FDFFF777FEFFF786
:100B74009FFEFFF7D1FEFFF7FFFEFFF717FFFFF71A
:100B84002BFF2E4802F080FC03F098FA2C4B002235
:100B94001A702C480268D36843F01003D3602A4EBD
:100BA4003268136843F0100313606422274903F08A
:100BB40017F83268136823F00803136001E0002576
:100BC4002C461F4B1B78DBB2012B06D04FF6F47377
:100BD4009C422CD80134A4B2F3E71D4B1B780024AB
:100BE40003E01B4B1B5D0134A4B2F02B01D00B2C92
:100BF400F7D90CB1013CA4B22646154B1B5DF02B72
:100C040003D00F4B00221A70E0E704F10903104AE5
:100C1400D35CF72BF5D1E31D174650220021F85C75
:100C240003F0F8FA0836B85D03F0BEFBE9E7FE2DE1
:100C3400C5D80135ADB20024C3E700BFE4000020ED
:100C4400900000202C020020CC010020F40200209F
:100C5400CC020020024A137801331370704700BF9E
:100C64002800002008B564220549064802F0B8FFB0
:100C7400054B1A68136823F00803136008BD00BF0E
:100C8400F40200202C020020CC01002008B5826D63
:100C940003681B6813F0100F16D0C16D4FF4006386
:100CA4008B409360094B1B7873B903685A68C2F18F
:100CB400640218239A4200D31A4605490548FFF7EF
:100CC400E7FA024B01221A7008BD00BF9000002011
:100CD400F4020020CC02002070477047FEE7FEE7D4
:100CE400FEE7FEE770477047704708B501F064FA05
:100CF40008BD000008B5034802F0DCFBFFF79CFECA
:100D040008BD00BFE400002000B583B00B4B1B6896
:100D14001A6812F0100F0CD01A6801925B680193E4
:100D2400074B1A68136823F00103136003B05DF8DE
:100D340004FB024803F056F8F8E700BF2C02002039
:100D4400CC01002008B5024801F09AF808BD00BFA4
:100D54006C02002010B5054C2046FFF797FF204693
:100D640001F08EF8FFF77EFF10BD00BFCC0100201C
:100D740008B5024801F084F808BD00BF2401002032
:100D840008B5024802F0C4F908BD00BF30000020D5
:100D940008B5024802F082FA08BD00BF3000002006
:100DA4002DE9F04387B00023019302930393049346
:100DB4000593264B1B6813B107B0BDE8F083234BA2
:100DC40001221A6000250095214B9A6B42F0010222
:100DD4009A639B6B03F001030093009B4FF03C0963
:100DE400CDF8049002260296032404944FF00C08D4
:100DF400CDF81480174F01A9384600F045FECDF810
:100E04000490029603950494CDF8148001A9124825
:100E140000F03AFE4FF48043019302960395049444
:100E24004FF00A08CDF8148001A90C4800F02CFEFC
:100E34004FF4C2530193029603950494CDF81480A1
:100E440001A9384600F020FEB6E700BF2C000020C0
:100E54000038024000080240000002400004024042
:100E640082B0002100910B4B5A6C42F480425A64C8
:100E74005A6C02F480420092009A01911A6C42F07A
:100E840080521A641B6C03F080530193019B02B0DF
:100E9400704700BF0038024030B589B00023039387
:100EA4000493059306930793026803F1804303F5C3
:100EB40090339A4201D009B030BD04460025019513
:100EC40003F58C335A6C42F480725A645A6C02F4FF
:100ED40080720192019A02951A6B42F001021A6320
:100EE4001B6B03F001030293029B032303930493FC
:100EF40003A9104800F0C8FD0F48104B036045607B
:100F04008560C5604FF4806303614FF400634361FF
:100F14004FF4005383614FF48073C36105624562EB
:100F240000F000FF18B9044BA3639C63C3E7FFF709
:100F3400D3FEF8E7000002406C0200201064024077
:100F44002DE9F04389B0002303930493059306939A
:100F5400079302682B4B9A4202D009B0BDE8F08394
:100F640000250095284C236B43F004032363236B73
:100F740003F004030093009B0195236B43F00103EA
:100F84002363236B03F001030193019B4FF400736C
:100F940003934FF01209CDF810904FF00108CDF8EB
:100FA4001480032706970426079603A9174800F020
:100FB4006BFD4FF480730393CDF81090CDF814803B
:100FC4000697079603A9124800F05EFD0295236C6C
:100FD40043F400032364236C03F400030293029B91
:100FE4002A462946482001F04FF8482001F080F8AD
:100FF4002A462946492001F047F8492001F078F8AB
:10100400ABE700BF005C004000380240000802402B
:101014000000024002680E4B9A4200D0704700B5AF
:1010240083B00021019103F50D331A6C42F00202E2
:101034001A641B6C03F002030193019B0A461D20F2
:1010440001F022F81D2001F053F803B05DF804FB11
:101054000004004030B589B0002303930493059342
:1010640006930793026803F1804303F588339A4299
:1010740001D009B030BD04460025019503F5943331
:101084005A6C42F010025A645A6C02F01002019237
:10109400019A02951A6B42F001021A631B6B03F06A
:1010A40001030293029B4FF4C0630393022304934E
:1010B400032306930723079303A9204800F0E4FCC5
:1010C4001F48204B03604FF0006343608560C56098
:1010D4004FF48063036145618561C56105624562C2
:1010E40000F020FE18BB164B63639C631648174B35
:1010F40003604FF000634360402383600023C360B8
:101104004FF48062026143618361C361036243629D
:1011140000F008FE70B90C4B23639C630022114657
:10112400252000F0B1FF252000F0E2FFA1E7FFF742
:10113400D3FDD8E7FFF7D0FDEDE700BF0000024084
:10114400CC0100204064024024010020B864024025
:1011540008B5FFF725FE08BD4A4B5A6822F4403211
:101164005A605A6841680A435A600268536823F413
:101174008073536002685368016943EA0123536032
:101184000268536823F040735360026853688168AF
:101194000B4353600268936823F40063936002680E
:1011A4009368C1680B439360826A374B9A424BD071
:1011B4000268936823F07063936002689368816A9D
:1011C4000B4393600268936823F040539360026872
:1011D4009368C16A0B4393600268936823F0020327
:1011E400936002689368017E43EA4103936090F838
:1011F4002030002B33D10268536823F4006353601A
:101204000268D36A23F47003D3620168CB6AC269AB
:10121400013A43EA0253CB620268936823F40073F1
:1012240093600268936890F8301043EA4123936016
:101234000268936823F48063936002689368416949
:1012440043EA8123936070470268936823F07063D4
:1012540093600268936823F040539360BCE702688C
:10126400536843F4006353600268536823F4604393
:10127400536001684B68426A013A43EA42334B6067
:10128400BEE700BF002301400100000F38B310B5D2
:101294000446036C43B1236C13F0100F0BD00120F0
:1012A400002384F83C3010BDFFF7F6FD002363648F
:1012B40084F83C30EFE7236C23F4885323F00203D3
:1012C40043F0020323642046FFF746FF00206064D6
:1012D400236C23F0030343F001032364E0E70120BC
:1012E4007047000030B482B00023019390F83C3082
:1012F400012B00F0B780012380F83C300B68092BE8
:101304003ED90568EA689BB203EB43031E3B0724FE
:1013140004FA03F322EA0303EB600568EA688C68C5
:101324000B8803EB43031E3B04FA03F31343EB6004
:101334004B68062B3AD805686A6B03EB8303053BBD
:101344001F2404FA03F322EA03036B6305686A6B40
:101354004B6803EB8303053B0C8804FA03F3134344
:101364006B630268404B9A4250D002683E4B9A42EB
:1013740055D0002380F83C30184602B030BC70478A
:1013840005682A699BB203EB4303072404FA03F3B9
:1013940022EA03032B6105682A698C680B8803EB36
:1013A400430304FA03F313432B61C1E70C2B16D850
:1013B40005682A6B03EB8303233B1F2404FA03F31E
:1013C40022EA03032B6305682A6B4B6803EB830350
:1013D400233B0C8804FA03F313432B63C1E705682A
:1013E400EA6A03EB8303413B1F2404FA03F322EA72
:1013F4000303EB620568EA6A4B6803EB8303413B32
:101404000C8804FA03F31343EB62AAE70B68122B6C
:10141400ABD1164A536843F480035360A5E70B68C5
:10142400103B012BA5D8114A536843F400035360C1
:101434000B68102B9DD10E4B1B6802F1467202F50E
:101444002E3202F28332A2FB03239B0C03EB8303B1
:101454005A00019202E0019B013B0193019B002B86
:10146400F9D186E7022088E70020014000230140EB
:1014740008000020324B9B6803F00C03042B5CD063
:10148400082B01D02F4870472DE9F04B2C4B5A689C
:1014940002F03F025B6813F4800F2BD0284B5B688B
:1014A400C3F388131E4600275C010025E41A65EB8C
:1014B4000705A90141EA9461A001001B61EB050144
:1014C400CB0043EA5073C400A01943EB07014B025D
:1014D40043EAD0534402204619460023FEF7BCFFDA
:1014E400174B5B68C3F3014301335B00B0FBF3F0BC
:1014F400BDE8F08B124B5B68C3F388131E460027CC
:101504005C010025E41A65EB0705A90141EA946131
:10151400A001001B61EB0501CB0043EA5073C4003A
:10152400A01943EB07018B0243EA9053840220463F
:1015340019460023FEF790FFD2E70348704700BF27
:10154400003802400024F40000127A00002800F061
:101554009E8070B50446504B1B6803F00F038B420A
:1015640009D2CBB24C4A1370136803F00F038B42B9
:1015740001D0012070BD236813F0020F17D013F0BF
:10158400040F04D0454A936843F4E05393602368FE
:1015940013F0080F04D0414A936843F46043936006
:1015A4003E4A936823F0F003A068034393600D461A
:1015B400236813F0010F32D06368012B21D09A1EE7
:1015C400012A25D9354A126812F0020F61D0334935
:1015D4008A6822F0030213438B6000F0F9FD06468B
:1015E4002E4B9B6803F00C036268B3EB820F16D09A
:1015F40000F0EEFD801B41F288339842F0D90320BD
:10160400B8E7264A126812F4003FE0D10120B1E79E
:10161400224A126812F0007FD9D10120AAE71E4B9A
:101624001B6803F00F03AB4209D9EAB21A4B1A70D4
:101634001B6803F00F03AB4201D001209AE7236833
:1016440013F0040F06D0154A936823F4E053E168BD
:101654000B439360236813F0080F07D00F4A936875
:1016640023F46043216943EAC1039360FFF702FF57
:101674000A4B9B68C3F30313094AD35CD840094B54
:101684001860094B186800F057FD002072E701202C
:10169400704701206EE700BF003C02400038024062
:1016A4004C4600080800002004000020014B186884
:1016B400704700BF0800002008B5FFF7F7FF044B90
:1016C4009B68C3F38223034AD35CD84008BD00BFA0
:1016D400003802405C46000808B5FFF7E7FF044BFA
:1016E4009B68C3F34233034AD35CD84008BD00BFB0
:1016F400003802405C46000870B582B004460368B6
:1017040013F0010F3BD0A74B9B6803F00C03042B91
:101714002CD0A44B9B6803F00C03082B21D06368E6
:10172400B3F5803F4FD0B3F5A02F52D09D4B1A682C
:1017340022F480321A601A6822F480221A606368E4
:10174400002B50D000F044FD0546964B1B6813F463
:10175400003F14D100F03CFD401B6428F5D9032060
:101764008AE1904B5B6813F4800FD8D08D4B1B68D3
:1017740013F4003F03D06368002B00F07A812368E0
:1017840013F0020F55D0874B9B6813F00C0F3ED01B
:10179400844B9B6803F00C03082B33D0E368002BC5
:1017A40068D0814B01221A6000F012FD05467D4B82
:1017B4001B6813F0020F54D100F00AFD401B0228ED
:1017C400F5D9032058E1774A136843F48033136052
:1017D400B5E7744B1A6842F480221A601A6842F41E
:1017E40080321A60ABE700F0F3FC05466D4B1B68D2
:1017F40013F4003FC3D000F0EBFC401B6428F5D980
:10180400032039E1674B5B6813F4800FC6D1654B45
:101814001B6813F0020F04D0E368012B01D00120F0
:101824002AE1604A136823F0F803216943EAC103FB
:101834001360236813F0080F40D0636963B35B4BF4
:1018440001221A6000F0C4FC0546564B5B6F13F08E
:10185400020F33D100F0BCFC401B0228F5D9032051
:101864000AE1504A136823F0F803216943EAC103EB
:101874001360DEE74C4B00221A6000F0A9FC054619
:10188400484B1B6813F0020FD3D000F0A1FC401B9F
:101894000228F5D90320EFE0444B00221A6000F03F
:1018A40097FC05463F4B5B6F13F0020F06D000F028
:1018B4008FFC401B0228F5D90320DDE0236813F0D8
:1018C400040F78D0374B1B6C13F0805F33D10023A7
:1018D4000193344B1A6C42F080521A641B6C03F06F
:1018E40080530193019B0125314B1B6813F4807FC6
:1018F40023D0A368012B34D0052B38D0294B1A6F81
:1019040022F001021A671A6F22F004021A67A36810
:10191400002B36D000F05CFC0646224B1B6F13F004
:10192400020F47D100F054FC801B41F288339842E7
:10193400F3D90320A0E00025D6E71D4A136843F439
:101944008073136000F044FC0646194B1B6813F4C3
:10195400807FCED100F03CFC801B0228F5D9032007
:101964008AE0104A136F43F001031367CFE70D4B6E
:101974001A6F42F004021A671A6F42F001021A67E2
:10198400C5E700F025FC0646064B1B6F13F0020F5B
:1019940010D000F01DFC801B41F288339842F3D92B
:1019A400032069E00038024000004742800E4742AD
:1019B40000700040E5B9A369002B5CD0304A9268FE
:1019C40002F00C02082A59D0022B17D02D4B00220A
:1019D4001A6000F0FDFB0446294B1B6813F0007FDE
:1019E40045D000F0F5FB001B0228F5D9032043E0A5
:1019F400234A136C23F080531364DCE7214B002249
:101A04001A6000F0E5FB05461D4B1B6813F0007FD0
:101A140006D000F0DDFB401B0228F5D903202BE0A3
:101A2400E369226A1343626A43EA8213A26A520890
:101A3400013A43EA0243E26A43EA0263226B43EA5D
:101A440002730F4A53600F4B01221A6000F0C0FB6F
:101A540004460B4B1B6813F0007F06D100F0B8FB63
:101A6400001B0228F5D9032006E0002004E0002032
:101A740002E0012000E0002002B070BD0120FBE77D
:101A8400003802406000474200230F2B00F2BE8062
:101A9400F0B583B038E0032200E00022AA403A43C4
:101AA40002345B4D45F824205A4A1468F24302EA92
:101AB40004054F6817F4803F01D046EA0405554CED
:101AC4002560646802EA04054F6817F4003F01D0FA
:101AD40046EA04054F4C6560A46802EA04054F68B1
:101AE40017F4801F01D046EA04054A4CA560E46857
:101AF40022404D6815F4001F01D046EA0402454C0B
:101B0400E26001330F2B7FD801229A400C6804EA6B
:101B14000206B242F5D14C68651E012D03D9112C81
:101B240001D0122C12D185685F000324BC4025EA41
:101B34000405CC68BC402C438460456825EA020552
:101B44004C68C4F300129A402A434260C4685F00A0
:101B54000322BA40D24314408D68BD402543C5607A
:101B64004C68022C01D0122C13D1DD08083550F832
:101B740025E003F007044FEA840C0F2404FA0CF464
:101B84002EEA040E0C6904FA0CF444EA0E0440F83C
:101B94002540046822404C6804F00304BC402243FE
:101BA40002604A6812F0805FABD0002201921A4AA8
:101BB400546C44F480445464526C02F480420192A4
:101BC400019A9C08A51C124A52F8257003F00302DE
:101BD40095000F22AA4027EA0207104A90423FF4D8
:101BE4005CAF02F5806290420AD002F580629042B6
:101BF40008D002F5806290423FF44DAF07224DE7D2
:101C040001224BE7022249E703B0F0BD704700BF51
:101C140000380140003C014000380240000002400E
:101C240012B90904816170478161704730B4056855
:101C34002C6824F480242C60046863608368402B3F
:101C440005D0036899600368DA6030BC70470368A4
:101C54009A600368D960F8E70268D3B2103B0B4975
:101C6400A1FB03131B090A49C95CC165032B06D8F0
:101C740022F47F7222F003028265806D704722F4A1
:101C84007F7222F0030204328265F6E7ABAAAAAAA5
:101C940044460008836A826992B9012B0AD01BB1B9
:101CA400022B01D000207047C36A13F0807F2CD12F
:101CB40000207047C36AB3F1C07F28D0002070476A
:101CC400B2F5005F05D0022B29D9032B15D00020D3
:101CD4007047032B03D8DFE803F01C041C0A002020
:101CE4007047C36A13F0807F15D100207047C36A20
:101CF400B3F1C07F11D000207047C36A13F0807F16
:101D040001D0012070470020704701207047012056
:101D1400704701207047012070470120704701205F
:101D24007047000070B5044600F052FA002C5BD0F6
:101D34000546002384F83430022384F835302268C1
:101D4400136823F00103136023681A6812F0010F6B
:101D54000AD000F03DFA401B0528F5D9202363651D
:101D6400032084F8350070BD1A682048104061686B
:101D7400A2680A43E1680A4321690A4361690A4384
:101D8400A1690A43E1690A43216A0A430243616A79
:101D940004291ED01A602668756925F00705636A50
:101DA4001D43042B07D1A36A1D43E36A1BB12046DC
:101DB400FFF770FF90B975612046FFF74DFFE26DA4
:101DC4003F239340836000206065012384F835300D
:101DD400C9E7E16A206B01430A43DBE740236365FB
:101DE400012084F83500BEE70120BCE73F8010F0F5
:101DF40038B5856D90F83440012C2CD0012480F83E
:101E0400344090F83540E4B2012C04D0002380F82B
:101E14003430022038BD0446022084F83500002006
:101E240060652046FFF702FFE26D3F239340AB60FD
:101E34002268136843F016031360236C23B12268ED
:101E4400136843F0080313602268136843F0010326
:101E540013600020DEE70220DCE790F83530DBB2C7
:101E6400022B03D08023436501207047052380F8AB
:101E740035300268136823F00103136000207047B3
:101E8400F0B583B0044600230193724B1D68724B76
:101E9400A3FB0535AD0A876D3E68C26D08239340E8
:101EA400334210D003681A6812F0040F0BD01A687A
:101EB40022F004021A60C26D08239340BB60436D94
:101EC40043F001034365E26D01239340334209D09B
:101ED4002268526912F0800F04D0BB60636D43F036
:101EE40002036365E26D04239340334209D0226800
:101EF400126812F0020F04D0BB60636D43F0040358
:101F04006365E26D10239340334224D02268126843
:101F140012F0080F1FD0BB6023681A6812F4802FD8
:101F24000DD01B6813F4002F04D1236C9BB1204601
:101F3400984710E0A36C73B1204698470BE01A68E9
:101F440012F4807F03D11A6822F008021A60236C0D
:101F54000BB120469847E26D20239340334255D07D
:101F64002268126812F0100F50D0BB6094F835301C
:101F7400DBB2052B0ED023681A6812F4802F33D0FD
:101F84001B6813F4002F2AD1636C002B3ED020462B
:101F940098473BE02268136823F016031360226815
:101FA400536923F080035361236CA3B1226813683F
:101FB40023F008031360E26D3F239340BB600023CA
:101FC40084F83430012384F83530236D002B3FD05E
:101FD400204698473CE0A36C002BE7D1EBE7E36B8A
:101FE400A3B12046984711E01A6812F4807F09D102
:101FF4001A6822F010021A60002384F83430012396
:1020040084F83530E36B0BB120469847636DFBB120
:10201400636D13F0010F17D0052384F8353022685F
:10202400136823F001031360019B01330193AB4256
:1020340004D823681B6813F0010FF5D1002384F83A
:102044003430012384F83530E36C0BB120469847D3
:1020540003B0F0BD08000020B5814E1B90F8350098
:1020640070470000074AD36823F4E0631B041B0C89
:10207400000200F4E060184340F0BF6040F4003018
:10208400D060704700ED00E030B4174BDB68C3F359
:102094000223C3F10704042C28BF04241D1D062DAC
:1020A40018D9033B4FF0FF3505FA04F421EA040183
:1020B400994005FA03F322EA0303194300280BDBD2
:1020C4000901C9B200F1604000F5614080F80013D5
:1020D40030BC70470023E5E700F00F000901C9B2E6
:1020E400024B1954F4E700BF00ED00E014ED00E0EA
:1020F400002807DB00F01F02400901239340024A35
:1021040042F82030704700BF00E100E00138B0F130
:10211400807F0AD2064B5860064AF02182F82310C9
:102124000020986007221A6070470120704700BFA2
:1021340010E000E000ED00E010B504460E4B187806
:102144004FF47A73B3FBF0F30C4A1068B0FBF3F06E
:10215400FFF7DCFF68B90F2C01D901200AE0002247
:1021640021464FF0FF30FFF78FFF054B1C60002026
:1021740000E0012010BD00BF000000200800002086
:102184000400002008B50B4B1A6842F400721A6070
:102194001A6842F480621A601A6842F480721A6003
:1021A4000320FFF75FFF0020FFF7C6FFFEF758FE8E
:1021B400002008BD003C0240034A1168034B1B7811
:1021C4000B441360704700BF9C03002000000020F4
:1021D400014B1868704700BF9C03002070B40C6862
:1021E40050F824301C4E1E404A688D6842EA0503AC
:1021F400CA6813430A6913434A691343CA691343F8
:102204000A6A13434A6A13438A6A1343CA6A134322
:102214000A6B13434A6B1343CA6B13438A6B13430E
:102224003343082D0ED040F824304B6BB3F5801F98
:102234000BD00B681BB103688A6B13430360002047
:1022440070BC704743F04003EDE70A68002AF0D001
:10225400026813430360ECE78004C0FF30B401322A
:1022640050F8224004F040440B684D6843EA0513DB
:102274008D6843EA0523CD6843EA05430D69013DB2
:1022840043EA05534D69023D43EA05638D692B43D7
:10229400234340F82230036813F4801F07D04368B7
:1022A40023F470030A69013A43EA025343600020AD
:1022B40030BC7047B3F5804F05D06FF0704340F8E1
:1022C40022300020704730B450F82230094C1C40B2
:1022D4000B684D6843EA05138D6843EA0523CD680E
:1022E40043EA054389690B43234340F82230002025
:1022F40030BC70470000F0CF28B370B504461546D3
:102304000E4690F84930CBB104F108012068FFF77C
:1023140065FFA26831462068FFF7A0FF236BA2681F
:1023240029466068FFF7C6FF2268A16852F8213089
:1023340043F0010342F82130002070BD80F848309A
:10234400FEF706FFE0E701207047036D9BB9C36CFD
:10235400012B08D0836CC3F3072302681361036D58
:10236400013303657047836C0268DBB21361036D4C
:10237400023303657047036D012B03D0036D022BF9
:1023840008D07047836C0268DBB21361036D0133BC
:102394000365704790F83D30DBB2222B10D090F8E3
:1023A4003D30DBB2212BECD1426A036812781A610A
:1023B400436A01334362438D013B9BB24385E0E7AB
:1023C4000268136843F480731360704790F83E30DA
:1023D400DBB2402B0AD00369B3F5804F15D0036DEF
:1023E400002B34D0036D012B3BD07047036D2BB908
:1023F400436C026803F0FE0313617047436C026888
:1024040043F00103DBB21361704790F83D30DBB257
:10241400212B0FD0436C026843F00103DBB213613C
:10242400436B6BB1DB6B5BB10268536843F40063CD
:1024340053607047436C026803F0FE031361EFE7D7
:10244400836B002BD1D0DB6B002BEDD1CDE7436C3C
:10245400C3F3C813026803F0060343F0F0031361E7
:102464007047436CC3F3C813026803F0060343F0D8
:10247400F1031361B9E7436C0268DBB21361436B88
:102484003BB1DB6B4BB10268536843F400635360A8
:102494007047826B002AF4D1FAE7836BDB6B002B65
:1024A400F1D1F5E710B48BB090F83E30DAB2C16ADE
:1024B400046B90F83D30DBB2222B0BD00023099340
:1024C40003685A6909929B690993099B0BB05DF8EB
:1024D400044B7047036D0BB9402A17D0036D1BB929
:1024E4000369B3F5404F19D0438D9BB2002B25D11E
:1024F400029303685A6902929A690292029A1A68CC
:1025040042F400721A6000230365DFE70093036856
:102514005A6900929B690093009BD7E700230193BB
:1025240003685A6901929A690192019A1A6842F4FD
:1025340080721A60036D01330365C7E7438D9BB254
:10254400012B25D0438D9BB2022B7BD002681368EC
:1025540043F48063136003685A6812F4006F0ED06A
:1025640011F5803F07D0012905D0082903D010298F
:1025740001D0202903D15A6842F480525A600023C2
:10258400089303685A6908929B690893089BBAE701
:1025940011F5803F11D0082934D0202932D0122CD3
:1025A4002ED0042940D002293ED010293CD0026804
:1025B400136823F4806313603BE00268136823F418
:1025C4008063136003685A6812F4006F0CD01A68B1
:1025D40022F480621A600023039303685A69039209
:1025E4009B690393039B8EE7002204925A69049229
:1025F4009A690492049A1A6842F400721A6082E793
:102604000129CED00268136823F480631360002389
:10261400069303685A6906929A690692069A1A689A
:1026240042F400721A606EE70268136843F4806330
:1026340013600023059303685A6905929B69059307
:10264400059B60E704290ED002290CD010290AD07A
:102654000268136823F4806313600268136843F408
:102664000063136004E00268136843F4806313603A
:1026740003685A6812F4006F0ED011F5803F07D03A
:10268400012905D0082903D0102901D0202903D11C
:102694005A6842F480525A600023079303685A69C7
:1026A40007929B690793079B2DE7438D9BB253B118
:1026B400426A036812781A61436A01334362438DA4
:1026C400013B9BB243857047438D9BB253B1036872
:1026D4001A69436A1A70436A01334362438D013BAA
:1026E4009BB243857047C36AB3F52A0F04D0C36A0B
:1026F400B3F12A4F03D070470123C3627047082304
:10270400C362F8E7002800F0C880F8B5044690F8E2
:102714003D30002B75D0242384F83D3022681368A3
:1027240023F0010313602268136843F40043136029
:102734002268136823F400431360FEF7BDFF626848
:10274400584B9A4262D8584B98428CBF00230123BD
:10275400002B40F0A480554BA3FB00239B0C216865
:102764004A6822F03F021A434A6025682A6A22F026
:102774003F0266684B498E424ED8013313432B62A5
:102784002568E96921F44F4121F0FF016368454A56
:1027940093424BD801385B00B0FBF3F30133C3F32E
:1027A4000B03042B38BF04230B43EB6121680B6834
:1027B40023F0C003E269206A024313430B602168DB
:1027C4008B6823F4034323F0FF032269E068024388
:1027D40013438B602168CB6823F0FF036269A0690F
:1027E40002431343CB602268136843F00103136070
:1027F40000202064202384F83D30206384F83E00C8
:10280400F8BD80F83C30FEF79BFB84E7284B9842E8
:102814008CBF002301239BE74FF4967101FB03F364
:102824002449A1FB03139B090133A7E7A268BAB9A2
:10283400461E03EB4307B6FBF7F60136C6F30B0659
:10284400B6FA86F6760936BBC2B9013803EB430300
:10285400B0FBF3F30133C3F30B0242F40043A3E7E9
:10286400461E03EB830707EB8707B6FBF7F6013633
:10287400C6F30B06B6FA86F67609E4E7013803EBED
:10288400830303EB8303B0FBF3F20132C2F30B02C5
:1028940042F4404388E7012386E701207047012082
:1028A400AEE700BFA08601007F841E0083DE1B43C9
:1028B400FF083D00D34D621070477047704708B55C
:1028C40090F83D30DAB2438D9BB27BB1416A036824
:1028D40009781961436A01334362438D013B9BB21A
:1028E4004385438D9BB20BB9292A00D008BD0268E9
:1028F400536823F48063536021230363282380F8FF
:102904003D30FFF7DBFFF1E7704708B590F83D3045
:10291400DAB2438D9BB27BB103681969436A1970BB
:10292400436A01334362438D013B9BB24385438D2C
:102934009BB20BB92A2A00D008BD0268536823F45D
:102944008063536022230363282380F83D30FFF71C
:10295400DBFFF1E7704708B590F83D3003F028033A
:10296400282B07D003686FF002025A61002380F815
:102974003C3008BD0268536823F48063536011F04F
:10298400040F0BD0002311F0800F09D1828900219C
:1029940080F83C101946FFF7DDFFEAE70123F2E770
:1029A400028BF4E77047000008B590F83D30DBB2C5
:1029B400C26A082A01D0202A01D1282B06D0212B53
:1029C4001ED003686FF480625A6108BD1A4BC3625B
:1029D4000268536823F4E063536003686FF4806211
:1029E4005A610268136823F480631360002303634D
:1029F400202280F83D2080F83E30FFF7D3FFE4E743
:102A04000D4BC36221230363202380F83D30002350
:102A140080F83E300268536823F4E063536003682F
:102A24006FF480625A610268136823F48063136050
:102A3400FFF744FFC9E700BF0000FFFF704710B570
:102A440090F83D30DBB290F83E20D2B2C46A018DDA
:102A540009B9212B04D0212B3BD0402A37D010BDFB
:102A6400082C04D0202C02D014F5803F19D1026820
:102A7400536823F4E06353600268136843F40073FB
:102A8400136000230363202380F83D3090F83E3028
:102A9400DBB2402B15D0002380F83E30FFF70CFF4B
:102AA400DDE70268536823F4E06353601123036392
:102AB400002380F83E30202380F83D30FFF7FCFEF1
:102AC400CDE7002380F83E30FFF7B8FFC7E7222B9D
:102AD400C5D1438D9BB283B190F83E30DBB2402B1D
:102AE40011D0426A036812781A61436A013343625F
:102AF400438D013B9BB24385B1E70268536823F4DD
:102B040080635360ABE7FFF720FCA8E708B5C26A0F
:102B140090F83D30DBB2212B05D090F83E30DBB28B
:102B2400402B46D008BD438D9BB203BB082A04D07A
:102B3400202A02D012F5803F25D10268536823F47D
:102B4400E06353600268136843F400731360002366
:102B54000363202380F83D3090F83E30DBB2402BF5
:102B640021D0002380F83E30FFF7A6FEDAE7426A60
:102B7400036812781A61436A01334362438D013B4F
:102B84009BB24385CEE70268536823F4E063536045
:102B940011230363002380F83E30202380F83D3066
:102BA400FFF78AFEBEE7002380F83E30FFF746FFBA
:102BB400B8E7FFF7CAFBB5E7704708B590F83D30B2
:102BC400DBB2222B00D008BD438D9BB2032B14D95A
:102BD40003681A69436A1A70436A01334362438D76
:102BE400013B9BB24385438D9BB2032BEBD102681F
:102BF400536823F480635360E5E7C26A022AE2D093
:102C0400012BE0D80268136823F480631360026820
:102C1400536823F4E063536003681A69436A1A70C3
:102C2400436A01334362438D013B9BB243852023B6
:102C340080F83D3090F83E30DBB2402B07D00023C3
:102C440080F83E3012230363FFF737FEBBE700230F
:102C540080F83E300363FFF7AFFFB4E708B5C26AFC
:102C6400438D9BB2042B13D0438D9BB2032B20D0F6
:102C7400438D9BB2022B36D003681A69436A1A70DB
:102C8400436A01334362438D013B9BB243850FE0AA
:102C94000268536823F48063536003681A69436AC3
:102CA4001A70436A01334362438D013B9BB24385EF
:102CB40008BD01684B6823F480634B60042A06D086
:102CC400022A04D00268136823F480631360036843
:102CD4001A69436A1A70436A01334362438D013BA4
:102CE4009BB24385E4E7012A0BD0102A09D0042AB9
:102CF40036D0022A34D00268136843F40073136098
:102D040004E00268136823F48063136003681A699B
:102D1400436A1A70426A531C4362438D013B9BB25F
:102D2400438503681B695370436A01334362438DCF
:102D3400013B9BB243850268536823F4407353609C
:102D4400202380F83D3090F83E30DBB2402B0DD08C
:102D5400002380F83E3012230363FFF7AEFDA7E79C
:102D64000268136843F480631360CFE7002380F89C
:102D74003E300363FFF720FF9AE77047704708B5BA
:102D8400806B90F83D30DBB2426B0AB10021D16315
:102D9400826B0AB10021D16301680A6822F480625F
:102DA4000A6000224285426B0AB100211165826BE0
:102DB4000AB10021116501680A6822F001020A6063
:102DC40090F83D20D2B2602A0CD003F02803282BBF
:102DD40012D0202380F83D30002380F83E30FFF7E6
:102DE400CCFF08BD202380F83D30002380F83E301E
:102DF4000364FFF7C3FFF4E70268136843F00103B9
:102E040013600268136843F4806313600023036350
:102E1400282380F83D30E2E710B5044690F83D30B1
:102E2400DBB290F83E20D2B2102A33D003F028024D
:102E3400282A37D02268526812F4006F04D1602B1C
:102E440002D0202384F83D300023236384F83E30ED
:102E540023685A6812F4006F48D05A6822F400625A
:102E64005A60626B92F83530DBB2012B20D0444BB0
:102E74001365606BFEF7F1FF002849D022681368E0
:102E840023F001031360202384F83D30606B036D4D
:102E940098473DE0222BC9D101680A6822F40062F8
:102EA4000A60C3E700232363282384F83D30CFE777
:102EB400A36B334A1A65A06BFEF7CFFF40B32368B8
:102EC4005A6912F0400F05D01A69636A1A70636A6E
:102ED400013363622268136823F001031360202323
:102EE40084F83D30A06B036D984711E094F83D20C1
:102EF400D2B2602A1FD05A6912F0400F05D01A6965
:102F0400636A1A70636A013363622046FFF735FF10
:102F1400236C13F00F0F04D02268536823F4E0638A
:102F2400536094F83D30DBB2226C12F0040F01D0F0
:102F3400282B18D010BD202284F83D2000222264C2
:102F44005A6912F0400F05D01A69636A1A70636AED
:102F5400013363622268136823F00103136020467F
:102F6400FFF70CFFD4E7074BE3620023236320221F
:102F740084F83D2084F83E302046FFF713FDD9E75E
:102F8400832D00080000FFFF30B583B0044690F89D
:102F94003D50EDB20268536823F4E06353600023AC
:102FA400019303685A6901921A6842F001021A6097
:102FB400019B0268136823F48063136003685A68F2
:102FC40012F4006F38D0222D21D02A2D1FD0426B4D
:102FD4001268526892B24285428D92B21AB1026C62
:102FE40042F0040202645A6822F400625A60606B80
:102FF400FFF734F801281FD0636B434A1A65606BEE
:10300400FEF72BFFC0B1606B036D984714E0A26B11
:103014001268526892B26285628D92B21AB1226CC1
:1030240042F0040222645A6822F400625A60A06BDF
:10303400FFF714F8012840D1638D9BB223B32368B2
:103044005A6912F0040F09D01A69636A1A70636A24
:1030540001336362638D013B9BB2638523685A69C4
:1030640012F0400F09D01A69636A1A70636A013357
:103074006362638D013B9BB26385638D9BB21BB11D
:10308400236C43F004032364236C13BB2A2D25D043
:1030940094F83D30DBB2282B29D0236B222B01D0AE
:1030A400222D19D100232363202284F83D2084F8A3
:1030B4003E302046FFF728FC0EE0A36B124A1A6547
:1030C400A06BFEF7CAFE0028B6D0A06B036D98472C
:1030D400B2E72046FFF7A0FE03B030BD0023236310
:1030E400282384F83D302046FFF70EFCD0E7074B39
:1030F400E36200232363202284F83D2084F83E30D9
:103104002046FFF74FFCE7E7832D00080000FFFF90
:1031140070B5044602685568C66A90F83E30DBB262
:1031240090F83D10102B14D0C8B2402B11D0236C52
:10313400002B71D05369002113F0020F6FD015F4E6
:10314400007F6CD0236C03B191692046FFF703FC28
:1031540070BD9069536913F0010105D1B6F52A0FCA
:10316400F6D0B6F12A4FF3D011B115F4007F25D172
:1031740013F0080F02D015F4007F26D113F0020FCC
:1031840002D015F4007F24D110F0040F29D0526826
:1031940012F4006FDCD113F0800F05D015F4806FAA
:1031A40002D013F0040F18D013F0040FD0D015F48C
:1031B400007FCDD02046FFF7A9FCC9E72046FFF7E2
:1031C40092FA2046FFF702F9C2E72046FFF753F9C7
:1031D400BEE72046FFF766F9BAE72046FFF72FFC63
:1031E400B6E7526812F4006FB2D113F0400F05D065
:1031F40015F4806F02D013F0040F09D013F0040FFC
:10320400A6D015F4007FA3D02046FFF727FD9FE743
:103214002046FFF7D2FC9BE7916953698CE713F0D2
:10322400100F02D015F4007F17D1212819D02928B6
:1032340017D013F0400F05D015F4806F02D013F0AF
:10324400040F27D013F0040F82D015F4007F3FF44D
:103254007FAF2046FFF738FA7AE72046FFF794FE5F
:1032640076E713F0800F05D015F4806F02D013F0C9
:10327400040F0BD013F0040F3FF46AAF15F4007F72
:103284003FF466AF2046FFF710FA61E72046FFF7E8
:1032940016FB5DE72046FFF738FB59E7F8B504460F
:1032A40003685D695F6890F83E20D2B215F4807FB0
:1032B40007D017F4807F3CD06FF4807159610126E8
:1032C40000E0002615F4007F08D017F4807F05D0B5
:1032D40046F0020623686FF40071596115F4806F9B
:1032E40019D017F4807F16D0638D99B294F83D30CD
:1032F400DBB2206B202A1ED023686FF480615961F1
:1033040046F00406102A01D0402A04D1226813682A
:1033140043F40073136015F4006F08D017F4807F32
:1033240005D046F0080623686FF400625A6186B936
:10333400F8BD0026C6E70029DED1212B05D0292BB4
:1033440003D0282BD8D12128D6D12046FFF72CFB37
:10335400E1E7236C1E4326642046FFF75DFDE7E7A3
:1033640030B4036A23F001030362056A4268846986
:1033740024F073040B681C4325F002058B682B436F
:10338400104DA84203D005F58065A84205D123F06D
:103394000803CD682B4323F004030A4DA84203D04D
:1033A40005F58065A84205D122F440724D691543A4
:1033B4008A692A43426084614A684263036230BC7A
:1033C400704700BF0000014030B4036A23F48073E7
:1033D4000362036A4268C46924F073040D682C43D1
:1033E40023F400738D6843EA0523124DA84203D0E9
:1033F40005F58065A84206D123F40063CD6843EA4D
:10340400052323F480630B4DA84203D005F58065A2
:10341400A84207D122F440524D6942EA05128D694F
:1034240042EA05124260C4614A68C263036230BC66
:10343400704700BF0000014030B4036A23F4805396
:103444000362036A4468C26922F4E6420D6842EAF0
:10345400052223F400538D6843EA0533094DA8423D
:1034640003D005F58065A84204D124F480444D6955
:1034740044EA85144460C2614A680264036230BC51
:10348400704700BF000001400268D36843F00103A5
:10349400D3600268936803F00703062B03D0136814
:1034A40043F0010313600020704770477047704772
:1034B4007047704710B5044603681A6912F0020F8A
:1034C40011D0DA6812F0020F0DD06FF002021A6107
:1034D4000123037703689B6913F0030F70D0FFF790
:1034E400E6FF0023237723681A6912F0040F12D031
:1034F400DA6812F0040F0ED06FF004021A6102238E
:10350400237723689B6913F4407F5FD02046FFF73D
:10351400CEFF0023237723681A6912F0080F12D014
:10352400DA6812F0080F0ED06FF008021A61042353
:1035340023772368DB6913F0030F4ED02046FFF78F
:10354400B6FF0023237723681A6912F0100F12D0F4
:10355400DA6812F0100F0ED06FF010021A6108230F
:1035640023772368DB6913F4407F3DD02046FFF7BF
:103574009EFF0023237723681A6912F0010F03D0FA
:10358400DA6812F0010F36D123681A6912F0800F3D
:1035940003D0DA6812F0800F34D123681A6912F06C
:1035A400400F03D0DA6812F0400F32D123681A6951
:1035B40012F0200F03D0DA6812F0200F30D110BDC2
:1035C400FFF774FF2046FFF773FF8AE72046FFF7F3
:1035D4006DFF2046FFF76CFF9BE72046FFF766FF71
:1035E4002046FFF765FFACE72046FFF75FFF204664
:1035F400FFF75EFFBDE76FF001021A612046FFF797
:1036040054FFC1E76FF080021A61204600F03BF9D5
:10361400C3E76FF040021A612046FFF74AFFC5E78F
:103624006FF020021A61204600F02CF9C7E7000071
:103634000368304A904212D0B0F1804F0FD0A2F507
:103644007C4290420BD002F58062904207D002F592
:103654008062904203D002F57842904203D123F075
:1036640070034A681343234A90422AD0B0F1804F32
:1036740027D0A2F57C42904223D002F5806290428A
:103684001FD002F5806290421BD002F5784290422E
:1036940017D002F57052904213D002F58062904226
:1036A4000FD002F5806290420BD0A2F5983290427E
:1036B40007D002F58062904203D002F58062904206
:1036C40003D123F44073CA68134323F080034A6987
:1036D400134303608B68C3620B688362054B984293
:1036E40003D003F58063984201D10B69036301237E
:1036F4004361704700000140A8B110B5044690F83A
:103704003D305BB1022384F83D30211D2068FFF772
:103714008FFF012384F83D30002010BD80F83C3039
:10372400FDF778FCEEE701207047000030B4036A2F
:1037340023F010030362036A4468826922F4E642B8
:103744000D6842EA052223F020038D6843EA05133D
:10375400114DA84203D005F58065A84206D123F097
:103764008003CD6843EA051323F040030A4DA842C1
:1037740003D005F58065A84207D124F440644D695F
:1037840044EA85048D6944EA8504446082614A6898
:103794008263036230BC70470000014090F83C3003
:1037A400012B28D010B50446012380F83C300223B5
:1037B40080F83D300C2A0BD8DFE802F0070A0A0A29
:1037C400110A0A0A150A0A0A19000068FFF7C8FD57
:1037D400012384F83D30002084F83C0010BD0068CB
:1037E400FFF7A4FFF4E70068FFF7EEFDF0E70068D9
:1037F400FFF722FEECE702207047000090F83C300F
:10380400012B3BD030B4012380F83C30022380F8F4
:103814003D3003685C689D6824F070040A682243A4
:103824005A600368164A93421AD0B3F1804F17D0F6
:10383400A2F57C42934213D002F5806293420FD0EA
:1038440002F5806293420BD002F57842934207D08E
:1038540002F57052934203D0A2F59432934204D1FC
:1038640025F080054A6815439D60012380F83D30AA
:10387400002380F83C30184630BC70470220704763
:1038840000000140704770470268D36823F0C0030A
:10389400D360202380F8393070470268D36823F45A
:1038A4009073D3600268536923F0010353612023AA
:1038B40080F83A30704790F83930DBB2212B2AD1A6
:1038C4008368B3F5805F16D0036A5A1C02621A78C3
:1038D40003685A60C38C013B9BB2C384EBB9026892
:1038E400D36823F08003D3600268D36843F04003B5
:1038F400D36000207047036A1B880268C3F308037F
:10390400536003691BB9036A02330362E2E7036A83
:1039140001330362DEE70220704700207047000095
:103924002DE9F04B04460268136923F44053C1683F
:103934000B43136183680269134342691343C269E9
:103944001A430168CB6823F4164323F00C03134392
:10395400CB600268536923F4407381690B4353615C
:10396400C369B3F5004F3BD00368714A934200F03A
:10397400AB8002F58062934200F0A680FDF79CFEC6
:103984004FF00009061849EB090716EB000B47EB4B
:10399400090C4FEACC0343EA5B734FEACB0293462C
:1039A4009C4663689A009B0F10EB0B0049EB0C01DB
:1039B400FCF752FD5F4DA5FB00325109642202FB66
:1039C400110213013233A5FB03235B0903F0F00258
:1039D40002EB011203F00F03216813448B60A4E08F
:1039E4000368534A934239D002F58062934235D03A
:1039F400FDF762FE83464FF0000C06184CEB0C07F3
:103A040016EB000847EB0C094FEAC90343EA587365
:103A14004FEAC8029046994662680021921841EB29
:103A240001031BEB08004CEB0901FCF715FD414DAC
:103A3400A5FB00325109642202FB1102D300323388
:103A4400A5FB03235B095A0002F4F87202EB01128E
:103A540003F00703216813448B6066E0FDF73CFE26
:103A640080464FF00009061849EB090716EB000BD6
:103A740047EB090C4FEACC0343EA5B734FEACB02F2
:103A840093469C4662680021921841EB010318EBAF
:103A94000B0049EB0C01FCF7DFFC264DA5FB0032C3
:103AA4005109642202FB1102D3003233A5FB032324
:103AB4005B095A0002F4F87202EB011203F00703E7
:103AC400216813448B6030E0FDF706FE4FF00009D7
:103AD400061849EB090716EB000B47EB090C4FEAF4
:103AE400CC0343EA5B734FEACB0293469C4663687C
:103AF4009A009B0F10EB0B0049EB0C01FCF7ACFC9C
:103B04000C4DA5FB00325109642202FB1102130182
:103B14003233A5FB03235B0903F0F00202EB01122D
:103B240003F00F03216813448B60BDE8F08B00BFE2
:103B3400001001401F85EB5158B310B5044690F8AE
:103B440039300BB3242384F839302268D36823F442
:103B54000053D3602046FFF7E3FE2268136923F481
:103B6400904313612268536923F02A035361226846
:103B7400D36843F40053D3600020E063202384F827
:103B8400393084F83A3010BD80F83830FDF762FAE5
:103B9400D8E70120704790F83930DBB2202B16D1DA
:103BA400B9B1C2B190F83830012B16D001628284C9
:103BB400C2840023C363212280F8392080F838307E
:103BC4000168CA6842F08002CA6018467047022041
:103BD40070470120704701207047022070470000A1
:103BE40030B583B090F83A40E4B2202C3DD100299E
:103BF4003ED0002A3ED090F83830012B3CD01346FA
:103C04000A460446012180F8381082628385002523
:103C1400C563222180F83A10416B1848C863616B70
:103C240017480864616B1748C864616B0D652168A7
:103C34000431606BFEF7DCF8019523681A68019281
:103C44005A680192019A84F83850DA6842F4807212
:103C5400DA602268536943F00103536122685369AF
:103C640043F040035361284600E0022003B030BD16
:103C74000120FBE70120F9E70220F7E7A93C00084F
:103C8400853D0008913D000808B50168CB6823F024
:103C94004003CB60202380F83930FCF7DBFF0020A1
:103CA40008BD704708B5836B0268126812F4807F00
:103CB40013D10022DA851968CA6822F48072CA60B6
:103CC40019684A6922F001024A6119684A6922F0B6
:103CD40040024A61202283F83A201846FFF7E1FFA8
:103CE40008BD08B590F83A30DBB2222B45D1836881
:103CF400B3F5805F0ED0036903BB03685A68836A17
:103D0400591C81621A70C38D013B9BB2C385F3B108
:103D1400002033E0826A036943B903685B68C3F334
:103D240008031380836A02338362ECE703685B68E9
:103D3400DBB21380836A01338362E4E703685B6860
:103D4400826A511C816203F07F031370DBE702680F
:103D5400D36823F02003D3600268D36823F480730C
:103D6400D3600268536923F001035361202380F870
:103D74003A30FFF796FF002000E0022008BD7047AC
:103D840008B5806BFFF7FBFF08BD704710B5846B67
:103D940023685A6994F83930DBB2212B10D0236898
:103DA4005A6902F0400294F83A30DBB2222B11D067
:103DB400E36B43F01003E3632046FFF7E6FF10BD17
:103DC40002F08002002AEAD00023E3842046FFF7B1
:103DD4005BFDE4E7002AEBD00023E3852046FFF7F0
:103DE4005CFDE5E710B5044602681368D1685269C2
:103DF40013F00F0005D113F0200F02D011F0200FA3
:103E040056D100286AD012F0010202D111F4907F39
:103E140064D013F0010F06D011F4807F03D0E06B5F
:103E240040F00100E06313F0040F04D01AB1E06B1A
:103E340040F00200E06313F0020F04D01AB1E06B0B
:103E440040F00400E06313F0080F07D011F0200FD6
:103E540000D11AB1E26B42F00802E263E26B002A7D
:103E640048D013F0200F02D011F0200F24D1236882
:103E74005B6903F04003E26B12F0080F00D13BB31F
:103E84002046FFF70AFD23685A6912F0400F1BD041
:103E94005A6922F040025A61636B8BB11A4A1A655F
:103EA400606BFDF7DAFF28B3606B036D984721E080
:103EB4002046FFF716FF1DE02046FFF712FFD6E766
:103EC4002046FFF762FF15E02046FFF75EFF11E092
:103ED4002046FFF75AFF0023E3630BE013F0800F43
:103EE40002D011F0800F06D113F0400F02D011F070
:103EF400400F04D110BD2046FFF7DDFCFAE7204651
:103F0400FFF7C2FEF6E700BF113F000808B5806B5B
:103F14000023C385C384FFF738FF08BD054BD3F8DE
:103F2400882042F47002C3F888204FF000629A603F
:103F3400704700BF00ED00E084B0019000230393BC
:103F4400019A642303FB02F3039302E0039B013B06
:103F54000393039B002BF9D104B070474FF0D8436F
:103F640018707047014B1870704700BF0100006C57
:103F740010B5044600F00F00FFF7F0FF20091030E1
:103F8400FFF7ECFF10BD10B504462020FFF7E6FF55
:103F94002046FFF7E3FF10BD08B540F04000FFF7EF
:103FA400DDFF08BD10B504468120FFF7D7FF20468A
:103FB400FFF7D4FF10BD08B5FFF7D0FF08BD08B563
:103FC400FFF7CCFF08BD08B5FFF7C8FF08BD10B563
:103FD4000446A820FFF7C2FF2046FFF7BFFF10BD2D
:103FE40010B50446FFF7BAFFAF2C05D0012280219B
:103FF4000448FDF715FE10BD002280210148FDF79D
:104004000FFEF8E70008024008B540F0B000FFF7E3
:10401400A5FF08BD08B5FFF7A1FF08BD10B504460C
:10402400D320FFF79BFF2046FFF798FF10BD10B584
:104034000446D520FFF792FF2046FFF78FFF10BDFF
:1040440010B50446D920FFF789FF2046FFF786FF05
:1040540010BD10B50446DA20FFF780FF2046FFF7B5
:104064007DFF10BD10B50446DB20FFF777FF204627
:10407400FFF774FF10BD10B50446FD20FFF76EFF77
:104084002046FFF76FFF10BD70B50546002609E016
:104094002846FFF767FF0134E4B214F0800FF7D02D
:1040A4000136F6B2072E07D83046FFF7ADFF0020E1
:1040B400FFF75EFF0024F0E770BD000010B5264C4A
:1040C400012280212046FDF7ABFD0022022120467B
:1040D400FDF7A6FD002404E0C820FFF72DFF0134FE
:1040E400E4B2C72CF8D9012202211B48FDF798FD40
:1040F4001220FFF7C0FFAE20FFF772FFA020FFF7EA
:1041040096FF3F20FFF763FF0020FFF787FF0020A3
:10411400FFF742FF0220FFF736FFA120FFF74BFF16
:10412400C820FFF777FF1220FFF793FF8F20FFF7D8
:1041340039FF2520FFF784FF3420FFF793FFA420E5
:10414400FFF73DFFA620FFF73EFF0020FFF79CFF8F
:10415400AF20FFF745FF10BD000802402DE9F041F4
:104164000E461746542505FB00F5294B03EB0508BD
:104174000846FFF749FF3846FFF7FAFE002405E03A
:1041840018F8010BFFF7EEFE0134E4B2142CF7D952
:1041940005F115081E4B9844701CC0B2FFF734FF9C
:1041A4003846FFF7E5FE002405E018F8010BFFF799
:1041B400D9FE0134E4B2142CF7D905F12A08144BC2
:1041C4009844B01CC0B2FFF71FFF3846FFF7D0FE7B
:1041D400002405E018F8010BFFF7C4FE0134E4B233
:1041E400142CF7D93F350A4B1D44F01CC0B2FFF71D
:1041F4000BFF3846FFF7BCFE002405E015F8010B61
:10420400FFF7B0FE0134E4B2142CF7D9BDE8F08115
:10421400644600082DE9F0470E4617465A2A00D98D
:104224005A2701380A2807D8DFE800F01C080A0CCE
:104234000E10121416181A00002514E0012512E0BD
:104244000B2510E002250EE003250CE00D250AE005
:10425400042508E00E2506E0052504E00F2502E00C
:10426400062500E00A254D4BA3FB05394FEAD90981
:104274004FEA89034B449A00494B03EB020830464A
:10428400FFF7C2FE07F11B0A5FFA8AFA5046FFF7EE
:104294006FFE002405E018F8010BFFF763FE0134FC
:1042A400E4B2092CF7D94FEA0913A3EB09094FEA41
:1042B40049033B4A02EB030806F101095FFA89F955
:1042C4004846FFF7A1FE5046FFF752FE002405E0E2
:1042D40018F8010BFFF746FE0134E4B2092CF7D9B4
:1042E4002E4BA3FB0523DB089A0013445A00AD1A96
:1042F400EDB26C2303FB05F52A4B03EB05083046AE
:10430400FFF782FE3846FFF733FE002405E018F875
:10431400010BFFF727FE0134E4B21A2CF7D905F19B
:104324001B08204B98444846FFF76EFE3846FFF7BB
:104334001FFE002405E018F8010BFFF713FE0134FB
:10434400E4B21A2CF7D905F13608164B9844B01C80
:10435400C0B2FFF759FE3846FFF70AFE002405E015
:1043640018F8010BFFF7FEFD0134E4B21A2CF7D95B
:1043740051350C4B1D44F01CC0B2FFF745FE3846C6
:10438400FFF7F6FD002405E015F8010BFFF7EAFD41
:104394000134E4B21A2CF7D9BDE8F087CDCCCCCCEB
:1043A400A04C0008AC490008F8B505460520FFF705
:1043B4002BFE0020FFF7DCFD002404E00020FFF7C3
:1043C400D1FD0134E4B214F0800FF7D00620FFF7DA
:1043D4001BFE0020FFF7CCFD002404E00020FFF7C3
:1043E400C1FD0134E4B214F0800FF7D0172D0ED0C4
:1043F400162D00F28D800520FFF706FE05F17F07DC
:104404007F00FFB23846FFF7B3FD002649E00520E0
:10441400FFF7FAFD3020FFF7ABFD00245E4D05E009
:1044240015F8010BFFF79EFD0134E4B20E2CF7D909
:104434000620FFF7E9FD3020FFF79AFD0024574DD1
:1044440005E015F8010BFFF78DFD0134E4B20E2CE5
:10445400F7D90520FFF7D8FD4120FFF789FD002497
:104464004F4D05E015F8010BFFF77CFD0134E4B274
:104474000E2CF7D90620FFF7C7FD4120FFF778FD82
:104484000024484D05E015F8010BFFF76BFD0134DE
:10449400E4B20E2CF7D93AE0FF20FFF763FD0136B2
:1044A400F6B2C5F117046400A642F5DB0620FFF757
:1044B400ABFD3846FFF75CFD002504E0FF20FFF765
:1044C40051FD0135EDB2AC42F8DC0520FFF79CFD4F
:1044D4003020FFF74DFD00242F4D05E015F8010BAA
:1044E400FFF740FD0134E4B20E2CF7D90620FFF7A4
:1044F4008BFD3020FFF73CFD0024284D05E015F826
:10450400010BFFF72FFD0134E4B20E2CF7D9F8BDEF
:104514000520FFF779FD4120FFF72AFD0024204EF6
:1045240005E016F8010BFFF71DFD0134E4B20E2C73
:10453400F7D90620FFF768FD4120FFF719FD002495
:10454400184E05E016F8010BFFF70CFD0134E4B238
:104554000E2CF7D90520FFF757FD5120FFF708FD72
:10456400002604E0FF20FFF7FDFC0136F6B26C00E4
:10457400173CA642F6DB0620FFF746FD5120FFF765
:10458400F7FC002504E0FF20FFF7ECFC0135EDB259
:10459400AC42F8DCBBE700BFE64C0008F54C000871
:1045A400C84C0008D74C00082DE9F041064688465F
:1045B40017461D46002409E02A46394618F8040027
:1045C400FFF7CCFD1535EDB20134E4B2B442F3D3B8
:1045D400BDE8F081DFF834D0002103E00C4B5B58D8
:1045E400435004310B480C4B42189A42F6D30B4A01
:1045F40002E0002342F8043B094B9A42F9D3FFF747
:104604008DFCFBF721FEFCF7A9FA7047000004209B
:10461400144D0008000000200C0000200C000020B5
:10462400A0030020FEE70000F8B500BFF8BC08BCFA
:104634009E467047F8B500BFF8BC08BC9E4670475C
:10464400000610160006101600000000000000000E
:104654000102030406070809000000000102030424
:104664000000C0F0F8FC3E0E0F070707070F0E3ED0
:10467400FCF8F0C00000FEFFFFFF01000000000096
:10468400000000000001FFFFFFFE000F7FFFFFF0AE
:1046940080000000000000000080F0FFFF7F0F009A
:1046A40000000103070F0E1E1C1C1C1C1E0E0F070E
:1046B400030100000000000006060606FFFFFFFFDE
:1046C40000000000000000000000000000000000E6
:1046D40000FFFFFFFF0000000000000000000000DA
:1046E400000000000000FFFFFFFF000000000000CA
:1046F40000000000000000000000001F1F1F1F003A
:10470400000000000000000000001C0E0E0E070751
:104714000707070F0F3EFEFCF8E000000000000052
:104724000000000000000080C0F0F87F3F1F070079
:104734000000000080C0E0F0F87C1E0F07030100B9
:1047440000000000000000001E1F1F1F1F1C1C1C77
:104754001C1C1C1C1C1C1C1C1C00000000000E0E3D
:1047640007070707070707070F1EFEFCFCF00000FA
:10477400000000000000707070707078F8FCDECFEC
:10478400C7830100000000000000000000000000DA
:104794000000000183FFFFFFFC000000000F0E1E5D
:1047A4001E1C1C1C1C1C1C1E0F0F070701000000F4
:1047B4000000000000000000C0E0F87C3EFFFFFFA6
:1047C400FF00000000000080E0F07C3E1F070301B2
:1047D4000000FFFFFFFF000000001E1F1F1F1D1C25
:1047E4001C1C1C1C1C1C1CFFFFFFFF1C1C1C1C0095
:1047F4000000000000000000000000001F1F1F1F39
:104804000000000000000000FFFFFF070707070784
:10481400070707070707000000000000003F3F3FAD
:10482400383838787870F0E0E0C08000000000008C
:1048340000000000000000000000000083FFFFFFF4
:104844007E00000000000E0E1C1C1C1C1C1C1C0EF8
:104854000F0F070301000000000080E0F0F87C1E49
:104864000E0F07070707070707070E0E0000FCFFD8
:10487400FFFFC1E07030383838383878F0F0E0E0C5
:10488400C000000F7FFFFFC1000000000000000017
:10489400000081FFFFFF7F0000000103070F0E1ED1
:1048A4001C1C1C1C1C1E0F0F0703010000000F0F13
:1048B4000F0F0F0F0F0F0F0F0F0F0FCFEFFFFF3F54
:1048C4001F0000000000000000000080E0F8FC3F32
:1048D4000F0701000000000000000080E0F8FCFF6A
:1048E4001F07010000000000000000000000001885
:1048F4001F1F1F0700000000000000000000000050
:104904000000F0F8FCFE1E0F07070707070F1EFE46
:10491400FEFCF00000000003878FDFFFFC7C78F0D2
:10492400F0F8FCDECF870300000000F8FEFFFF83F1
:104934000100000000000103030FFFFFFEF8000068
:104944000003070F0F0E1E1C1C1C1C1C1E0E0F0741
:10495400070300000080F0F8FC3E1E0F070707075E
:10496400070F0E1E7CF8F0C000001F7FFFFFF0C091
:104974008000000000008080C0E0FFFFFFFE000018
:1049840000000103030707070707070303C1F0FF3C
:10499400FF3F030000000E0E1C1C1C1C1C1C1C1ED4
:1049A4000E0F07030100000000000080E0F0F8FC97
:1049B4003C1E0E0E07070707070707070F0F0E1EFB
:1049C4001E00000000FCFFFFFF03000000000000C9
:1049D40000000000000000000000000000000000D3
:1049E400073FFFFFF8E08000000000000000000027
:1049F40000000000000000000000000000000103AF
:104A040007070F0F1E1E1C1C1C1C1C1C1C1E0E0E3C
:104A14000E070000000000FFFFFFFF07070707075E
:104A2400070707070F0F0E1E3EFCF8F0E08000009A
:104A34000000FFFFFFFF0000000000000000000076
:104A4400000000000003FFFFFFFE000000FFFFFF67
:104A5400FF0000000000000000000000000080E0F3
:104A6400F8FF7F1F030000001F1F1F1F1C1C1C1CBE
:104A74001C1C1C1C1C1E0E0E0F070703010000004B
:104A840000000000000000FFFFFFFF070707070703
:104A940007070707070707000000000000000000E1
:104AA4000000FFFFFFFF70707070707070707070A6
:104AB40000000000000000000000000000FFFFFFF5
:104AC400FF000000000000000000000000000000E3
:104AD40000000000000000001F1F1F1F1C1C1C1CE6
:104AE4001C1C1C1C1C1C1C1C1C00000000000000C6
:104AF400000000FFFFFFFF07070707070707070777
:104B04000707070000000000000000000000FFFF8E
:104B1400FFFFE0E0E0E0E0E0E0E0E0E000000000D3
:104B2400000000000000000000FFFFFFFF00000085
:104B34000000000000000000000000000000000071
:104B4400000000001F1F1F1F0000000000000000E5
:104B5400000000000000000000000080E0F0F8FC0D
:104B64003C1E0E0E07070707070707070F0F0E1E49
:104B74001E00000000FCFFFFFF0300000000000017
:104B84000000000000000000000000000000000021
:104B9400073FFFFFF8E08000000000000000000075
:104BA400000000FFFFFFFF00000000000000010301
:104BB40007070F0F1E1E1C1C1C1C1C1C1C1E0F0F89
:104BC4000F0F0000000000000000000000E0F8FFEC
:104BD4003F3FFFFFFCE080000000000000000000F9
:104BE4000000000080E0FCFF1F0700000000071F1A
:104BF400FFFFFCF0800000000000000080F0FC7F5C
:104C04001F1F1C1C1C1C1C1C1C1C1C1C1F1F7FFF8E
:104C1400FCF0800000101E1F0F03000000000000C5
:104C240000000000000000000000030F1F1F1E1002
:104C340000000000000000FFFFFFFF070707070751
:104C4400070F0F1EFEFCFCF0000000000000000037
:104C54000000FFFFFFFFE0E0E0E0E0F0F0B8BC9F01
:104C64000F070100000000000000000000FFFFFF2C
:104C7400FF0000000000010103030FFFFEFCF80029
:104C840000000000000000001F1F1F1F1C1C1C1C34
:104C94001C1C1C1E1E0F0F07030100000000000057
:104CA4000000000000000000000000000000000000
:104CB4000018F8FF1F18F8FF1F18033F3F07033FB2
:104CC4003F030300C0C0E0E0E0F07078383C1C1EF5
:104CD4000E0F0703030707070F0E1E1C3C387870DE
:104CE400F0E0070F0E1E1C3C387870F0E0E0E0C0E6
:104CF400C0E0F07078383C1C1E0E0F070707030352
:084D040088B7FF7F01000000E9
:044D0C002D0200086C
:044D10000502000890
:0C4D140001000000100000000024F4006A
:04000005080045D9D1
:00000001FF
